:100000000C9434000C94F0000C94F0000C94F0006C
:100010000C94F0000C94F0000C94F0000C94F000A0
:100020000C94F0000C94F0000C94F0000C94F00090
:100030000C94F0000C94F0000C94F0000C94F00080
:100040000C94F0000C94F0000C94F0000C94F00070
:100050000C94F0000C94F0000C94F0000C94F00060
:100060000C94F0000C94F00011241FBECFEFD8E0E8
:10007000DEBFCDBF0E94D1000C94E500F894FFCF05
:0E00800048656C6C6F2C20576F726C64210009
:10008E0084B1806F84B98AB183608AB92FEF80E71B
:10009E0092E0215080409040E1F700C0000083E3E1
:1000AE000E946F0082E30E946F0088E20E946F0040
:1000BE008CE00E946F0086E00E946F0081E00E943B
:1000CE006F008FE39CE90197F1F700C000000895DF
:1000DE009BB19E7F9BB99BB192609BB995B19F706E
:1000EE00282F207F922B95B99BB19D7F9BB935E030
:1000FE003A95F1F7000025B130E1839FC00111243C
:10010E00922F9F70892B85B98BB18D7F8BB98FE81C
:0C011E0091E00197F1F700C00000089587
:10012A009BB191609BB99BB192609BB995B19F704D
:10013A00282F207F922B95B99BB19D7F9BB935E0E3
:10014A003A95F1F7000025B130E1839FC0011124EF
:10015A00922F9F70892B85B98BB18D7F8BB98FE8D0
:0C016A0091E00197F1F700C0000008953B
:10017600CF92DF92EF926B01E82E06C09FEFC91A6D
:10018600D90AE90A0E949500F6018491E7FC80816C
:0C0196008111F4CFEF90DF90CF9008951E
:1001A2000E94470080E80E946F0060E870E080E0F3
:1001B2000E94BB002FEF83ED90E3215080409040DE
:0801C200E1F700C00000FFCFCF
:1001CA00EC010E94F5000E94F400CE010E94F600A4
:0601DA00CE010E94F200BC
:0401E0000C9400007B
:0401E4000E943E0037
:0201E800089578
:0201EA00089576
:0201EC00089574
:00000001FF
